{"abi":[{"type":"function","name":"setValues","inputs":[{"name":"_one","type":"uint8","internalType":"uint8"},{"name":"_two","type":"uint256","internalType":"uint256"},{"name":"_three","type":"bytes18","internalType":"bytes18"},{"name":"_four","type":"uint8[30]","internalType":"uint8[30]"},{"name":"_five","type":"bytes14","internalType":"bytes14"},{"name":"_six","type":"uint8","internalType":"uint8"}],"outputs":[],"stateMutability":"nonpayable"}],"bytecode":{"object":"0x6080604052348015600f57600080fd5b5061025b8061001f6000396000f3fe608060405234801561001057600080fd5b506004361061002b5760003560e01c80639e11458914610030575b600080fd5b61004361003e36600461018b565b610045565b005b6002805460ff191660ff88161790556000859055600180546001600160901b031916607086901c17905561007c600384601e6100ca565b506001805460909390931c600160901b0271ffffffffffffffffffffffffffffffffffff909316929092179091556002805460ff9092166101000261ff001990921691909117905550505050565b6001830191839082156101505791602002820160005b8382111561012157833560ff1683826101000a81548160ff021916908360ff16021790555092602001926001016020816000010492830192600103026100e0565b801561014e5782816101000a81549060ff0219169055600101602081600001049283019260010302610121565b505b5061015c929150610160565b5090565b5b8082111561015c5760008155600101610161565b803560ff8116811461018657600080fd5b919050565b60008060008060008061046087890312156101a557600080fd5b6101ae87610175565b95506020870135945060408701356dffffffffffffffffffffffffffff19811681146101d957600080fd5b93506104208701888111156101ed57600080fd5b606088019350356001600160901b03198116811461020a57600080fd5b91506102196104408801610175565b9050929550929550929556fea264697066735822122053f42374d186b19cd569438bcb1ec139dd3fd8a458ce1fc7b7993b5a7b1662f764736f6c634300081c0033","linkReferences":{}},"methodIdentifiers":{"setValues(uint8,uint256,bytes18,uint8[30],bytes14,uint8)":"9e114589"},"id":27}