{"abi":[{"type":"function","name":"loopDoWhile","inputs":[],"outputs":[],"stateMutability":"pure"},{"type":"function","name":"loopFor","inputs":[],"outputs":[],"stateMutability":"pure"},{"type":"function","name":"loopWhile","inputs":[],"outputs":[],"stateMutability":"pure"}],"bytecode":{"object":"0x6080604052348015600f57600080fd5b5060d380601d6000396000f3fe6080604052348015600f57600080fd5b5060043610603c5760003560e01c80633a792393146041578063519c13571460495780639671972814604f575b600080fd5b60476055565b005b60476070565b60476087565b6000805b600a811015606c57908101906001016059565b5050565b6000805b6014811015606c57908101906001016074565b6000805b90810190600101600a8110608b57505056fea26469706673582212209330a450aaf6e24c240061ca318f8f2ac278f7495ecb3cdd8eaf4ebed0fa1d5164736f6c634300081c0033","linkReferences":{}},"methodIdentifiers":{"loopDoWhile()":"96719728","loopFor()":"519c1357","loopWhile()":"3a792393"},"id":26}