{"abi":[{"type":"function","name":"loopDoWhile","inputs":[],"outputs":[],"stateMutability":"pure"},{"type":"function","name":"loopFor","inputs":[],"outputs":[],"stateMutability":"pure"},{"type":"function","name":"loopWhile","inputs":[],"outputs":[],"stateMutability":"pure"}],"bytecode":{"object":"0x6080604052348015600f57600080fd5b506101578061001f6000396000f3fe608060405234801561001057600080fd5b50600436106100415760003560e01c80633a79239314610046578063519c1357146100505780639671972814610058575b600080fd5b61004e610060565b005b61004e61008f565b61004e6100b0565b6000805b600a81101561008b5761007781836100ef565b91508061008381610108565b915050610064565b5050565b6000805b601481101561008b576100a681836100ef565b9150600101610093565b6000805b6100be81836100ef565b9150806100ca81610108565b915050600a81106100b4575050565b634e487b7160e01b600052601160045260246000fd5b80820180821115610102576101026100d9565b92915050565b60006001820161011a5761011a6100d9565b506001019056fea264697066735822122048aa1fd10fd62517a5a19ed6993c864cba5c7a5ab2a3dee0393559fe2635154564736f6c634300081c0033","linkReferences":{}},"methodIdentifiers":{"loopDoWhile()":"96719728","loopFor()":"519c1357","loopWhile()":"3a792393"},"id":26}