{"abi":[{"type":"function","name":"initArray","inputs":[],"outputs":[],"stateMutability":"nonpayable"}],"bytecode":{"object":"0x6080604052348015600f57600080fd5b5060a980601d6000396000f3fe6080604052348015600f57600080fd5b506004361060285760003560e01c806382a8181b14602d575b600080fd5b60336035565b005b60005b60c8811015605a578060008260c881106051576051605d565b01556001016038565b50565b634e487b7160e01b600052603260045260246000fdfea26469706673582212201464678600661e9fb53b0d4811246e6fb78069febe7307e1c96bc7943b2e02fd64736f6c634300081c0033","linkReferences":{}},"methodIdentifiers":{"initArray()":"82a8181b"},"id":30}