{"abi":[{"type":"function","name":"initArray","inputs":[],"outputs":[],"stateMutability":"nonpayable"}],"bytecode":{"object":"0x6080604052348015600f57600080fd5b5060b180601d6000396000f3fe6080604052348015600f57600080fd5b506004361060285760003560e01c806382a8181b14602d575b600080fd5b60336035565b005b60005b60c881101560785760008054600181810183559180527f290decd9548b62a8d60345a988386fc84ba6bc95484008f6362f93160ef3e56301829055016038565b5056fea264697066735822122049d80a98de87012ad1747b1d31d459e4c31ee54db398c152f5ac2043e0709d8264736f6c634300081c0033","linkReferences":{}},"methodIdentifiers":{"initArray()":"82a8181b"},"id":30}