{"abi":[{"type":"function","name":"call","inputs":[{"name":"number","type":"uint256","internalType":"uint256"}],"outputs":[{"name":"","type":"bool","internalType":"bool"}],"stateMutability":"pure"}],"bytecode":{"object":"0x6080604052348015600f57600080fd5b5060ce80601d6000396000f3fe6080604052348015600f57600080fd5b506004361060285760003560e01c80632b09692614602d575b600080fd5b603c60383660046080565b6050565b604051901515815260200160405180910390f35b600080821180156061575081603214155b8015606c5750606482105b15607857506001919050565b506000919050565b600060208284031215609157600080fd5b503591905056fea26469706673582212200765a29b1ee00c40718e7aaefdadd63d7c91fa3614362475e1d872e6ce9dda4d64736f6c634300081c0033","linkReferences":{}},"methodIdentifiers":{"call(uint256)":"2b096926"},"id":31}