{"abi":[{"type":"function","name":"callFor","inputs":[],"outputs":[],"stateMutability":"view"},{"type":"function","name":"myArray","inputs":[{"name":"","type":"uint256","internalType":"uint256"}],"outputs":[{"name":"","type":"uint256","internalType":"uint256"}],"stateMutability":"view"}],"bytecode":{"object":"0x6101c060405260016080908152600260a052600360c052600460e052600561010052600661012052600761014052600861016052600961018052600a6101a0819052604b91600091605c565b50348015605757600080fd5b5060ba565b8280548282559060005260206000209081019282156099579160200282015b828111156099578251829060ff16905591602001919060010190607b565b5060a392915060a7565b5090565b5b8082111560a3576000815560010160a8565b60e6806100c86000396000f3fe6080604052348015600f57600080fd5b506004361060325760003560e01c8063b34aa2b1146037578063cc3e57d914603f575b600080fd5b603d6060565b005b604e604a3660046098565b6078565b60405190815260200160405180910390f35b60008054905b818110156074576002016066565b5050565b60008181548110608757600080fd5b600091825260209091200154905081565b60006020828403121560a957600080fd5b503591905056fea26469706673582212203bd8121b439be2d73185b24565312a148d9788099df3a65d9595397ae927940664736f6c634300081c0033","linkReferences":{}},"methodIdentifiers":{"callFor()":"b34aa2b1","myArray(uint256)":"cc3e57d9"},"id":23}