{"abi":[{"type":"function","name":"add","inputs":[{"name":"myArray","type":"uint256[]","internalType":"uint256[]"}],"outputs":[{"name":"sum","type":"uint256","internalType":"uint256"}],"stateMutability":"pure"}],"bytecode":{"object":"0x6080604052348015600f57600080fd5b506101808061001f6000396000f3fe608060405234801561001057600080fd5b506004361061002b5760003560e01c806310b0b5d514610030575b600080fd5b61004361003e366004610096565b610055565b60405190815260200160405180910390f35b6000805b8281101561008f578383828181106100735761007361010d565b90506020020135826100859190610123565b9150600101610059565b5092915050565b600080602083850312156100a957600080fd5b823567ffffffffffffffff8111156100c057600080fd5b8301601f810185136100d157600080fd5b803567ffffffffffffffff8111156100e857600080fd5b8560208260051b84010111156100fd57600080fd5b6020919091019590945092505050565b634e487b7160e01b600052603260045260246000fd5b8082018082111561014457634e487b7160e01b600052601160045260246000fd5b9291505056fea2646970667358221220369d8df787acf1bdce7549aa7ca1fe2fb39826017f4b0d75858af142e8d2904464736f6c634300081c0033","linkReferences":{}},"methodIdentifiers":{"add(uint256[])":"10b0b5d5"},"id":25}