{"abi":[{"type":"function","name":"add","inputs":[{"name":"myArray","type":"uint256[]","internalType":"uint256[]"}],"outputs":[{"name":"sum","type":"uint256","internalType":"uint256"}],"stateMutability":"pure"}],"bytecode":{"object":"0x6080604052348015600f57600080fd5b506101f08061001f6000396000f3fe608060405234801561001057600080fd5b506004361061002b5760003560e01c806310b0b5d514610030575b600080fd5b61004361003e3660046100b0565b610055565b60405190815260200160405180910390f35b8051600090815b81811015610093578381815181106100765761007661017d565b6020026020010151836100899190610193565b925060010161005c565b5050919050565b634e487b7160e01b600052604160045260246000fd5b6000602082840312156100c257600080fd5b813567ffffffffffffffff8111156100d957600080fd5b8201601f810184136100ea57600080fd5b803567ffffffffffffffff8111156101045761010461009a565b8060051b604051601f19603f830116810181811067ffffffffffffffff821117156101315761013161009a565b60405291825260208184018101929081018784111561014f57600080fd5b6020850194505b8385101561017257843580825260209586019590935001610156565b509695505050505050565b634e487b7160e01b600052603260045260246000fd5b808201808211156101b457634e487b7160e01b600052601160045260246000fd5b9291505056fea2646970667358221220c2c758f5989bb179afc2590c8faf042c89463608129500fe18a1bc9fef19197864736f6c634300081c0033","linkReferences":{}},"methodIdentifiers":{"add(uint256[])":"10b0b5d5"},"id":25}