{"abi":[{"type":"constructor","inputs":[{"name":"_owners","type":"address[]","internalType":"address[]"},{"name":"_required","type":"uint256","internalType":"uint256"}],"stateMutability":"nonpayable"},{"type":"receive","stateMutability":"payable"},{"type":"function","name":"confirmTransaction","inputs":[{"name":"transactionId","type":"uint256","internalType":"uint256"}],"outputs":[],"stateMutability":"nonpayable"},{"type":"function","name":"confirmations","inputs":[{"name":"","type":"uint256","internalType":"uint256"},{"name":"","type":"address","internalType":"address"}],"outputs":[{"name":"","type":"bool","internalType":"bool"}],"stateMutability":"view"},{"type":"function","name":"executeTransaction","inputs":[{"name":"transactionId","type":"uint256","internalType":"uint256"}],"outputs":[],"stateMutability":"nonpayable"},{"type":"function","name":"getConfirmations","inputs":[{"name":"transactionId","type":"uint256","internalType":"uint256"}],"outputs":[{"name":"","type":"address[]","internalType":"address[]"}],"stateMutability":"view"},{"type":"function","name":"getTransactionCount","inputs":[],"outputs":[{"name":"","type":"uint256","internalType":"uint256"}],"stateMutability":"view"},{"type":"function","name":"isOwner","inputs":[{"name":"account","type":"address","internalType":"address"}],"outputs":[{"name":"","type":"bool","internalType":"bool"}],"stateMutability":"view"},{"type":"function","name":"owners","inputs":[{"name":"","type":"uint256","internalType":"uint256"}],"outputs":[{"name":"","type":"address","internalType":"address"}],"stateMutability":"view"},{"type":"function","name":"required","inputs":[],"outputs":[{"name":"","type":"uint256","internalType":"uint256"}],"stateMutability":"view"},{"type":"function","name":"submitTransaction","inputs":[{"name":"destination","type":"address","internalType":"address"},{"name":"value","type":"uint256","internalType":"uint256"}],"outputs":[],"stateMutability":"nonpayable"},{"type":"function","name":"transactions","inputs":[{"name":"","type":"uint256","internalType":"uint256"}],"outputs":[{"name":"transactionID","type":"uint256","internalType":"uint256"},{"name":"destination","type":"address","internalType":"address"},{"name":"value","type":"uint256","internalType":"uint256"},{"name":"confirmationCount","type":"uint256","internalType":"uint256"},{"name":"executionTimestamp","type":"uint256","internalType":"uint256"},{"name":"executed","type":"bool","internalType":"bool"}],"stateMutability":"view"},{"type":"event","name":"Confirmation","inputs":[{"name":"owner","type":"address","indexed":true,"internalType":"address"},{"name":"transactionId","type":"uint256","indexed":true,"internalType":"uint256"}],"anonymous":false},{"type":"event","name":"Deposit","inputs":[{"name":"sender","type":"address","indexed":true,"internalType":"address"},{"name":"value","type":"uint256","indexed":false,"internalType":"uint256"}],"anonymous":false},{"type":"event","name":"Execution","inputs":[{"name":"transactionId","type":"uint256","indexed":true,"internalType":"uint256"}],"anonymous":false},{"type":"event","name":"ExecutionFailure","inputs":[{"name":"transactionId","type":"uint256","indexed":true,"internalType":"uint256"}],"anonymous":false},{"type":"event","name":"Submission","inputs":[{"name":"transactionId","type":"uint256","indexed":true,"internalType":"uint256"}],"anonymous":false}],"bytecode":{"object":"0x608060405234801561001057600080fd5b50604051610fbe380380610fbe83398101604081905261002f916101f1565b60008251116100775760405162461bcd60e51b815260206004820152600f60248201526e13dddb995c9cc81c995c5d5a5c9959608a1b60448201526064015b60405180910390fd5b600081118015610088575081518111155b6100e55760405162461bcd60e51b815260206004820152602860248201527f496e76616c6964206e756d626572206f6620726571756972656420636f6e6669604482015267726d6174696f6e7360c01b606482015260840161006e565b60005b82518110156101b55760006001600160a01b031683828151811061010e5761010e6102ca565b60200260200101516001600160a01b03160361015c5760405162461bcd60e51b815260206004820152600d60248201526c24b73b30b634b21037bbb732b960991b604482015260640161006e565b6000838281518110610170576101706102ca565b60209081029190910181015182546001808201855560009485529290932090920180546001600160a01b0319166001600160a01b0390931692909217909155016100e8565b50600155506102e0565b634e487b7160e01b600052604160045260246000fd5b80516001600160a01b03811681146101ec57600080fd5b919050565b6000806040838503121561020457600080fd5b82516001600160401b0381111561021a57600080fd5b8301601f8101851361022b57600080fd5b80516001600160401b03811115610244576102446101bf565b604051600582901b90603f8201601f191681016001600160401b0381118282101715610272576102726101bf565b60405291825260208184018101929081018884111561029057600080fd5b6020850194505b838510156102b6576102a8856101d5565b815260209485019401610297565b506020969096015195979596505050505050565b634e487b7160e01b600052603260045260246000fd5b610ccf806102ef6000396000f3fe6080604052600436106100955760003560e01c80639ace38c2116100595780639ace38c2146101bf578063b5dc40c314610216578063c01a8c8414610243578063dc8452cd14610263578063ee22610b1461027957600080fd5b8063025e7c27146100d65780631d43b653146101135780632e7700f0146101355780632f54bf6e146101545780633411c81c1461018457600080fd5b366100d15760405134815233907fe1fffcc4923d04b559f4d29a8bfc6cda04eb5b0d3c460751c2402c5c5cc9109c9060200160405180910390a2005b600080fd5b3480156100e257600080fd5b506100f66100f1366004610b2a565b610299565b6040516001600160a01b0390911681526020015b60405180910390f35b34801561011f57600080fd5b5061013361012e366004610b5f565b6102c3565b005b34801561014157600080fd5b506002545b60405190815260200161010a565b34801561016057600080fd5b5061017461016f366004610b89565b610470565b604051901515815260200161010a565b34801561019057600080fd5b5061017461019f366004610bab565b600360209081526000928352604080842090915290825290205460ff1681565b3480156101cb57600080fd5b506101df6101da366004610b2a565b6104cf565b604080519687526001600160a01b0390951660208701529385019290925260608401526080830152151560a082015260c00161010a565b34801561022257600080fd5b50610236610231366004610b2a565b610522565b60405161010a9190610bd7565b34801561024f57600080fd5b5061013361025e366004610b2a565b6106e9565b34801561026f57600080fd5b5061014660015481565b34801561028557600080fd5b50610133610294366004610b2a565b610895565b600081815481106102a957600080fd5b6000918252602090912001546001600160a01b0316905081565b6102cc33610470565b6102f15760405162461bcd60e51b81526004016102e890610c23565b60405180910390fd5b6040805160c081018252600280548083526001600160a01b03868116602085019081528486018781526000606087018181526080880182815260a0890183815260018801895588845298517f405787fa12a823e0f2b7631cc41b3ba8828b3321ca811111fa75cd3aa3bb5ace60069098029788015593517f405787fa12a823e0f2b7631cc41b3ba8828b3321ca811111fa75cd3aa3bb5acf870180546001600160a01b031916919096161790945590517f405787fa12a823e0f2b7631cc41b3ba8828b3321ca811111fa75cd3aa3bb5ad085015591517f405787fa12a823e0f2b7631cc41b3ba8828b3321ca811111fa75cd3aa3bb5ad1840155517f405787fa12a823e0f2b7631cc41b3ba8828b3321ca811111fa75cd3aa3bb5ad283015592517f405787fa12a823e0f2b7631cc41b3ba8828b3321ca811111fa75cd3aa3bb5ad3909101805460ff19169115159190911790555491517fc0ba8fe4b176c1714197d43b9cc6bcf797a4a7461c5fe8d0ef6e184ae7601e519190a25050565b6000805b6000548110156104c657826001600160a01b03166000828154811061049b5761049b610c46565b6000918252602090912001546001600160a01b0316036104be5750600192915050565b600101610474565b50600092915050565b600281815481106104df57600080fd5b60009182526020909120600690910201805460018201546002830154600384015460048501546005909501549395506001600160a01b0390921693909260ff1686565b600080546060919067ffffffffffffffff81111561054257610542610c5c565b60405190808252806020026020018201604052801561056b578160200160208202803683370190505b5090506000805b600054811015610641576003600086815260200190815260200160002060008083815481106105a3576105a3610c46565b60009182526020808320909101546001600160a01b0316835282019290925260400190205460ff161561063957600081815481106105e3576105e3610c46565b9060005260206000200160009054906101000a90046001600160a01b031683838151811061061357610613610c46565b6001600160a01b0390921660209283029190910190910152610636600183610c72565b91505b600101610572565b5060008167ffffffffffffffff81111561065d5761065d610c5c565b604051908082528060200260200182016040528015610686578160200160208202803683370190505b50905060005b828110156106e0578381815181106106a6576106a6610c46565b60200260200101518282815181106106c0576106c0610c46565b6001600160a01b039092166020928302919091019091015260010161068c565b50949350505050565b6106f233610470565b61070e5760405162461bcd60e51b81526004016102e890610c23565b600254819081106107615760405162461bcd60e51b815260206004820152601a60248201527f5472616e73616374696f6e20646f6573206e6f7420657869737400000000000060448201526064016102e8565b6000828152600360209081526040808320338452909152902054829060ff16156107cd5760405162461bcd60e51b815260206004820152601d60248201527f5472616e73616374696f6e20616c726561647920636f6e6669726d656400000060448201526064016102e8565b60008381526003602090815260408083203384529091529020805460ff19166001908117909155600280548590811061080857610808610c46565b906000526020600020906006020160030160008282546108289190610c72565b9091555050604051839033907f4a504a94899432a9846e1aa406dceb1bcfd538bb839071d49d1e5e23f5be30ef90600090a36001546002848154811061087057610870610c46565b906000526020600020906006020160030154106108905761089083610895565b505050565b61089e33610470565b6108ba5760405162461bcd60e51b81526004016102e890610c23565b6002548190811061090d5760405162461bcd60e51b815260206004820152601a60248201527f5472616e73616374696f6e20646f6573206e6f7420657869737400000000000060448201526064016102e8565b816002818154811061092157610921610c46565b600091825260209091206005600690920201015460ff16156109855760405162461bcd60e51b815260206004820152601c60248201527f5472616e73616374696f6e20616c72656164792065786563757465640000000060448201526064016102e8565b6001546002848154811061099b5761099b610c46565b90600052602060002090600602016003015410610890576001600284815481106109c7576109c7610c46565b60009182526020822060069190910201600501805460ff19169215159290921790915560028054859081106109fe576109fe610c46565b6000918252602090912060016006909202010154600280546001600160a01b039092169186908110610a3257610a32610c46565b90600052602060002090600602016002015460405160006040518083038185875af1925050503d8060008114610a84576040519150601f19603f3d011682016040523d82523d6000602084013e610a89565b606091505b505090508015610ac35760405184907f33e13ecb54c3076d8e8bb8c2881800a4d972b792045ffae98fdf46df365fed7590600090a2610b24565b600060028581548110610ad857610ad8610c46565b60009182526020822060069190910201600501805460ff19169215159290921790915560405185917f526441bb6c1aba3c9a4a6ca1d6545da9c2333c8c48343ef398eb858d72b7923691a25b50505050565b600060208284031215610b3c57600080fd5b5035919050565b80356001600160a01b0381168114610b5a57600080fd5b919050565b60008060408385031215610b7257600080fd5b610b7b83610b43565b946020939093013593505050565b600060208284031215610b9b57600080fd5b610ba482610b43565b9392505050565b60008060408385031215610bbe57600080fd5b82359150610bce60208401610b43565b90509250929050565b602080825282518282018190526000918401906040840190835b81811015610c185783516001600160a01b0316835260209384019390920191600101610bf1565b509095945050505050565b6020808252600990820152682737ba1037bbb732b960b91b604082015260600190565b634e487b7160e01b600052603260045260246000fd5b634e487b7160e01b600052604160045260246000fd5b80820180821115610c9357634e487b7160e01b600052601160045260246000fd5b9291505056fea26469706673582212209747664a411e58cf2e8dbab58ad9d6a68a5889e6a901660a00bed61932663e8c64736f6c634300081c0033","linkReferences":{}},"methodIdentifiers":{"confirmTransaction(uint256)":"c01a8c84","confirmations(uint256,address)":"3411c81c","executeTransaction(uint256)":"ee22610b","getConfirmations(uint256)":"b5dc40c3","getTransactionCount()":"2e7700f0","isOwner(address)":"2f54bf6e","owners(uint256)":"025e7c27","required()":"dc8452cd","submitTransaction(address,uint256)":"1d43b653","transactions(uint256)":"9ace38c2"},"id":32}