{"abi":[{"type":"function","name":"call","inputs":[],"outputs":[],"stateMutability":"view"}],"bytecode":{"object":"0x60a060405233608052348015601357600080fd5b5060805160e861002c60003960006037015260e86000f3fe6080604052348015600f57600080fd5b506004361060285760003560e01c806328b5e32b14602d575b600080fd5b60336035565b005b7f00000000000000000000000000000000000000000000000000000000000000006001600160a01b0316331460b05760405162461bcd60e51b815260206004820152601b60248201527f4572726f723a20596f7520617265206e6f742061206f776e6572210000000000604482015260640160405180910390fd5b56fea2646970667358221220cd44b20596a85c855481988d08edaf681ddbdfeb88250fd0e53fa25bc3bd75b364736f6c634300081c0033","linkReferences":{}},"methodIdentifiers":{"call()":"28b5e32b"},"id":28}