{"abi":[{"type":"function","name":"swap","inputs":[{"name":"a","type":"uint256","internalType":"uint256"},{"name":"b","type":"uint256","internalType":"uint256"}],"outputs":[{"name":"","type":"uint256","internalType":"uint256"},{"name":"","type":"uint256","internalType":"uint256"}],"stateMutability":"pure"}],"bytecode":{"object":"0x6080604052348015600f57600080fd5b5060ab80601d6000396000f3fe6080604052348015600f57600080fd5b506004361060285760003560e01c8063d96073cf14602d575b600080fd5b603b60383660046054565b91565b6040805192835260208301919091520160405180910390f35b60008060408385031215606657600080fd5b5050803592602090910135915056fea26469706673582212206efbfa58d6511ac8578ab5dd2a020f2d76034f733da6d79bdd86702fe8507c7564736f6c634300081c0033","linkReferences":{}},"methodIdentifiers":{"swap(uint256,uint256)":"d96073cf"},"id":29}