{"abi":[{"type":"function","name":"swap","inputs":[{"name":"a","type":"uint256","internalType":"uint256"},{"name":"b","type":"uint256","internalType":"uint256"}],"outputs":[{"name":"","type":"uint256","internalType":"uint256"},{"name":"","type":"uint256","internalType":"uint256"}],"stateMutability":"pure"}],"bytecode":{"object":"0x6080604052348015600f57600080fd5b5061010f8061001f6000396000f3fe6080604052348015600f57600080fd5b506004361060285760003560e01c8063d96073cf14602d575b600080fd5b603c6038366004607c565b6055565b6040805192835260208301919091520160405180910390f35b6000806060838560b3565b9350606a838560c9565b92506074838560c9565b949293505050565b60008060408385031215608e57600080fd5b50508035926020909101359150565b634e487b7160e01b600052601160045260246000fd5b8082018082111560c35760c3609d565b92915050565b8181038181111560c35760c3609d56fea2646970667358221220616b0da3ab464bea1921e9b935c7e64e8aca4382713ad02cbb94d60cfc110a7564736f6c634300081c0033","linkReferences":{}},"methodIdentifiers":{"swap(uint256,uint256)":"d96073cf"},"id":29}