{"abi":[{"type":"function","name":"addition","inputs":[{"name":"value","type":"uint256","internalType":"uint256"}],"outputs":[],"stateMutability":"nonpayable"}],"bytecode":{"object":"0x60806040526001600055348015601457600080fd5b5060c98060226000396000f3fe6080604052348015600f57600080fd5b506004361060285760003560e01c8063543209b714602d575b600080fd5b603c60383660046055565b603e565b005b80600080828254604d9190606d565b909155505050565b600060208284031215606657600080fd5b5035919050565b80820180821115608d57634e487b7160e01b600052601160045260246000fd5b9291505056fea26469706673582212206a1002c4704132ffd9a4321ab7bf63d97a2315f53ab97a6c17b88df590ccf19764736f6c634300081c0033","linkReferences":{}},"methodIdentifiers":{"addition(uint256)":"543209b7"},"id":23}