{"abi":[{"type":"function","name":"divisionBy128","inputs":[{"name":"number","type":"uint256","internalType":"uint256"}],"outputs":[{"name":"","type":"uint256","internalType":"uint256"}],"stateMutability":"pure"},{"type":"function","name":"divisionBy2","inputs":[{"name":"number","type":"uint256","internalType":"uint256"}],"outputs":[{"name":"","type":"uint256","internalType":"uint256"}],"stateMutability":"pure"}],"bytecode":{"object":"0x6080604052348015600f57600080fd5b5060f28061001e6000396000f3fe6080604052348015600f57600080fd5b506004361060325760003560e01c80630353b6211460375780633c45444b146058575b600080fd5b604660423660046083565b6067565b60405190815260200160405180910390f35b604660633660046083565b6078565b60006072608083609b565b92915050565b60006072600283609b565b600060208284031215609457600080fd5b5035919050565b60008260b757634e487b7160e01b600052601260045260246000fd5b50049056fea26469706673582212200fcdddf6c8dcb821bc5c0beb8abf7d0814f73ae5cbf41aed6fc60e92e984a1e964736f6c634300081c0033","linkReferences":{}},"methodIdentifiers":{"divisionBy128(uint256)":"0353b621","divisionBy2(uint256)":"3c45444b"},"id":23}