{"abi":[{"type":"function","name":"subtraction","inputs":[{"name":"value","type":"uint256","internalType":"uint256"}],"outputs":[],"stateMutability":"nonpayable"}],"bytecode":{"object":"0x60806040526064600055348015601457600080fd5b5060c98060226000396000f3fe6080604052348015600f57600080fd5b506004361060285760003560e01c80636401557d14602d575b600080fd5b603c60383660046055565b603e565b005b80600080828254604d9190606d565b909155505050565b600060208284031215606657600080fd5b5035919050565b81810381811115608d57634e487b7160e01b600052601160045260246000fd5b9291505056fea26469706673582212200e69d03e76c48b5b874a4747caa63af776772861fdd86af392af5292dc190b1564736f6c634300081c0033","linkReferences":{}},"methodIdentifiers":{"subtraction(uint256)":"6401557d"},"id":23}