{"abi":[{"type":"function","name":"subtraction","inputs":[{"name":"value","type":"uint256","internalType":"uint256"}],"outputs":[],"stateMutability":"nonpayable"}],"bytecode":{"object":"0x60806040526064600055348015601457600080fd5b5060c48060226000396000f3fe6080604052348015600f57600080fd5b506004361060285760003560e01c80636401557d14602d575b600080fd5b603c60383660046050565b603e565b005b80600054604a91906068565b60005550565b600060208284031215606157600080fd5b5035919050565b81810381811115608857634e487b7160e01b600052601160045260246000fd5b9291505056fea2646970667358221220d14e536d33e7053a526ed9bd4623c2c8baa401b6707be10b7abc64e6635cdc8d64736f6c634300081c0033","linkReferences":{}},"methodIdentifiers":{"subtraction(uint256)":"6401557d"},"id":23}